{"abi":[{"type":"constructor","inputs":[],"stateMutability":"nonpayable"},{"type":"function","name":"CUSTOMS_ROLE","inputs":[],"outputs":[{"name":"","type":"bytes32","internalType":"bytes32"}],"stateMutability":"view"},{"type":"function","name":"DEFAULT_ADMIN_ROLE","inputs":[],"outputs":[{"name":"","type":"bytes32","internalType":"bytes32"}],"stateMutability":"view"},{"type":"function","name":"DISTRIBUTOR_ROLE","inputs":[],"outputs":[{"name":"","type":"bytes32","internalType":"bytes32"}],"stateMutability":"view"},{"type":"function","name":"MANUFACTURER_ROLE","inputs":[],"outputs":[{"name":"","type":"bytes32","internalType":"bytes32"}],"stateMutability":"view"},{"type":"function","name":"RETAILER_ROLE","inputs":[],"outputs":[{"name":"","type":"bytes32","internalType":"bytes32"}],"stateMutability":"view"},{"type":"function","name":"balanceOf","inputs":[{"name":"account","type":"address","internalType":"address"},{"name":"id","type":"uint256","internalType":"uint256"}],"outputs":[{"name":"","type":"uint256","internalType":"uint256"}],"stateMutability":"view"},{"type":"function","name":"balanceOfBatch","inputs":[{"name":"accounts","type":"address[]","internalType":"address[]"},{"name":"ids","type":"uint256[]","internalType":"uint256[]"}],"outputs":[{"name":"","type":"uint256[]","internalType":"uint256[]"}],"stateMutability":"view"},{"type":"function","name":"destroyProduct","inputs":[{"name":"tokenId","type":"uint256","internalType":"uint256"},{"name":"reason","type":"string","internalType":"string"}],"outputs":[],"stateMutability":"nonpayable"},{"type":"function","name":"exists","inputs":[{"name":"id","type":"uint256","internalType":"uint256"}],"outputs":[{"name":"","type":"bool","internalType":"bool"}],"stateMutability":"view"},{"type":"function","name":"getAllOwnedProducts","inputs":[{"name":"owner","type":"address","internalType":"address"}],"outputs":[{"name":"ownedProductsData","type":"tuple[]","internalType":"struct SupplyChainERC1155.Product[]","components":[{"name":"id","type":"uint256","internalType":"uint256"},{"name":"name","type":"string","internalType":"string"},{"name":"category","type":"string","internalType":"string"},{"name":"serialNumber","type":"string","internalType":"string"},{"name":"productionDate","type":"uint256","internalType":"uint256"},{"name":"geographicalOrigin","type":"string","internalType":"string"},{"name":"metadataHash","type":"bytes32","internalType":"bytes32"},{"name":"metadataUrl","type":"string","internalType":"string"},{"name":"manufacturer","type":"address","internalType":"address"},{"name":"exists","type":"bool","internalType":"bool"}]},{"name":"tokenIds","type":"uint256[]","internalType":"uint256[]"}],"stateMutability":"view"},{"type":"function","name":"getOwnedProductsBatch","inputs":[{"name":"owner","type":"address","internalType":"address"},{"name":"startIndex","type":"uint256","internalType":"uint256"},{"name":"count","type":"uint256","internalType":"uint256"}],"outputs":[{"name":"ownedProductsData","type":"tuple[]","internalType":"struct SupplyChainERC1155.Product[]","components":[{"name":"id","type":"uint256","internalType":"uint256"},{"name":"name","type":"string","internalType":"string"},{"name":"category","type":"string","internalType":"string"},{"name":"serialNumber","type":"string","internalType":"string"},{"name":"productionDate","type":"uint256","internalType":"uint256"},{"name":"geographicalOrigin","type":"string","internalType":"string"},{"name":"metadataHash","type":"bytes32","internalType":"bytes32"},{"name":"metadataUrl","type":"string","internalType":"string"},{"name":"manufacturer","type":"address","internalType":"address"},{"name":"exists","type":"bool","internalType":"bool"}]},{"name":"tokenIds","type":"uint256[]","internalType":"uint256[]"}],"stateMutability":"view"},{"type":"function","name":"getOwnedProductsCount","inputs":[{"name":"owner","type":"address","internalType":"address"}],"outputs":[{"name":"","type":"uint256","internalType":"uint256"}],"stateMutability":"view"},{"type":"function","name":"getProductsBatch","inputs":[{"name":"startId","type":"uint256","internalType":"uint256"},{"name":"endId","type":"uint256","internalType":"uint256"}],"outputs":[{"name":"batchProducts","type":"tuple[]","internalType":"struct SupplyChainERC1155.Product[]","components":[{"name":"id","type":"uint256","internalType":"uint256"},{"name":"name","type":"string","internalType":"string"},{"name":"category","type":"string","internalType":"string"},{"name":"serialNumber","type":"string","internalType":"string"},{"name":"productionDate","type":"uint256","internalType":"uint256"},{"name":"geographicalOrigin","type":"string","internalType":"string"},{"name":"metadataHash","type":"bytes32","internalType":"bytes32"},{"name":"metadataUrl","type":"string","internalType":"string"},{"name":"manufacturer","type":"address","internalType":"address"},{"name":"exists","type":"bool","internalType":"bool"}]},{"name":"validProducts","type":"bool[]","internalType":"bool[]"}],"stateMutability":"view"},{"type":"function","name":"getRoleAdmin","inputs":[{"name":"role","type":"bytes32","internalType":"bytes32"}],"outputs":[{"name":"","type":"bytes32","internalType":"bytes32"}],"stateMutability":"view"},{"type":"function","name":"grantCustomsRole","inputs":[{"name":"account","type":"address","internalType":"address"}],"outputs":[],"stateMutability":"nonpayable"},{"type":"function","name":"grantDistributorRole","inputs":[{"name":"account","type":"address","internalType":"address"}],"outputs":[],"stateMutability":"nonpayable"},{"type":"function","name":"grantManufacturerRole","inputs":[{"name":"account","type":"address","internalType":"address"}],"outputs":[],"stateMutability":"nonpayable"},{"type":"function","name":"grantRetailerRole","inputs":[{"name":"account","type":"address","internalType":"address"}],"outputs":[],"stateMutability":"nonpayable"},{"type":"function","name":"grantRole","inputs":[{"name":"role","type":"bytes32","internalType":"bytes32"},{"name":"account","type":"address","internalType":"address"}],"outputs":[],"stateMutability":"nonpayable"},{"type":"function","name":"hasRole","inputs":[{"name":"role","type":"bytes32","internalType":"bytes32"},{"name":"account","type":"address","internalType":"address"}],"outputs":[{"name":"","type":"bool","internalType":"bool"}],"stateMutability":"view"},{"type":"function","name":"isApprovedForAll","inputs":[{"name":"account","type":"address","internalType":"address"},{"name":"operator","type":"address","internalType":"address"}],"outputs":[{"name":"","type":"bool","internalType":"bool"}],"stateMutability":"view"},{"type":"function","name":"metadataRegistry","inputs":[{"name":"","type":"uint256","internalType":"uint256"}],"outputs":[{"name":"","type":"string","internalType":"string"}],"stateMutability":"view"},{"type":"function","name":"nextTokenId","inputs":[],"outputs":[{"name":"","type":"uint256","internalType":"uint256"}],"stateMutability":"view"},{"type":"function","name":"ownedProductIndex","inputs":[{"name":"","type":"address","internalType":"address"},{"name":"","type":"uint256","internalType":"uint256"}],"outputs":[{"name":"","type":"uint256","internalType":"uint256"}],"stateMutability":"view"},{"type":"function","name":"ownedProducts","inputs":[{"name":"","type":"address","internalType":"address"},{"name":"","type":"uint256","internalType":"uint256"}],"outputs":[{"name":"","type":"uint256","internalType":"uint256"}],"stateMutability":"view"},{"type":"function","name":"ownershipHistory","inputs":[{"name":"","type":"uint256","internalType":"uint256"},{"name":"","type":"uint256","internalType":"uint256"}],"outputs":[{"name":"owner","type":"address","internalType":"address"},{"name":"timestamp","type":"uint256","internalType":"uint256"},{"name":"transferReason","type":"string","internalType":"string"}],"stateMutability":"view"},{"type":"function","name":"pause","inputs":[],"outputs":[],"stateMutability":"nonpayable"},{"type":"function","name":"paused","inputs":[],"outputs":[{"name":"","type":"bool","internalType":"bool"}],"stateMutability":"view"},{"type":"function","name":"products","inputs":[{"name":"","type":"uint256","internalType":"uint256"}],"outputs":[{"name":"id","type":"uint256","internalType":"uint256"},{"name":"name","type":"string","internalType":"string"},{"name":"category","type":"string","internalType":"string"},{"name":"serialNumber","type":"string","internalType":"string"},{"name":"productionDate","type":"uint256","internalType":"uint256"},{"name":"geographicalOrigin","type":"string","internalType":"string"},{"name":"metadataHash","type":"bytes32","internalType":"bytes32"},{"name":"metadataUrl","type":"string","internalType":"string"},{"name":"manufacturer","type":"address","internalType":"address"},{"name":"exists","type":"bool","internalType":"bool"}],"stateMutability":"view"},{"type":"function","name":"registerProduct","inputs":[{"name":"to","type":"address","internalType":"address"},{"name":"name","type":"string","internalType":"string"},{"name":"category","type":"string","internalType":"string"},{"name":"serialNumber","type":"string","internalType":"string"},{"name":"geographicalOrigin","type":"string","internalType":"string"},{"name":"metadataUrl","type":"string","internalType":"string"},{"name":"metadataHash","type":"bytes32","internalType":"bytes32"},{"name":"amount","type":"uint256","internalType":"uint256"}],"outputs":[{"name":"","type":"uint256","internalType":"uint256"}],"stateMutability":"nonpayable"},{"type":"function","name":"renounceRole","inputs":[{"name":"role","type":"bytes32","internalType":"bytes32"},{"name":"callerConfirmation","type":"address","internalType":"address"}],"outputs":[],"stateMutability":"nonpayable"},{"type":"function","name":"revokeRole","inputs":[{"name":"role","type":"bytes32","internalType":"bytes32"},{"name":"account","type":"address","internalType":"address"}],"outputs":[],"stateMutability":"nonpayable"},{"type":"function","name":"safeBatchTransferFrom","inputs":[{"name":"from","type":"address","internalType":"address"},{"name":"to","type":"address","internalType":"address"},{"name":"ids","type":"uint256[]","internalType":"uint256[]"},{"name":"values","type":"uint256[]","internalType":"uint256[]"},{"name":"data","type":"bytes","internalType":"bytes"}],"outputs":[],"stateMutability":"nonpayable"},{"type":"function","name":"safeTransferFrom","inputs":[{"name":"from","type":"address","internalType":"address"},{"name":"to","type":"address","internalType":"address"},{"name":"id","type":"uint256","internalType":"uint256"},{"name":"value","type":"uint256","internalType":"uint256"},{"name":"data","type":"bytes","internalType":"bytes"}],"outputs":[],"stateMutability":"nonpayable"},{"type":"function","name":"setApprovalForAll","inputs":[{"name":"operator","type":"address","internalType":"address"},{"name":"approved","type":"bool","internalType":"bool"}],"outputs":[],"stateMutability":"nonpayable"},{"type":"function","name":"supportsInterface","inputs":[{"name":"interfaceId","type":"bytes4","internalType":"bytes4"}],"outputs":[{"name":"","type":"bool","internalType":"bool"}],"stateMutability":"view"},{"type":"function","name":"totalSupply","inputs":[],"outputs":[{"name":"","type":"uint256","internalType":"uint256"}],"stateMutability":"view"},{"type":"function","name":"totalSupply","inputs":[{"name":"id","type":"uint256","internalType":"uint256"}],"outputs":[{"name":"","type":"uint256","internalType":"uint256"}],"stateMutability":"view"},{"type":"function","name":"unpause","inputs":[],"outputs":[],"stateMutability":"nonpayable"},{"type":"function","name":"updateMetadataUrl","inputs":[{"name":"tokenId","type":"uint256","internalType":"uint256"},{"name":"newMetadataUrl","type":"string","internalType":"string"},{"name":"newMetadataHash","type":"bytes32","internalType":"bytes32"}],"outputs":[],"stateMutability":"nonpayable"},{"type":"function","name":"uri","inputs":[{"name":"tokenId","type":"uint256","internalType":"uint256"}],"outputs":[{"name":"","type":"string","internalType":"string"}],"stateMutability":"view"},{"type":"function","name":"urlToTokenId","inputs":[{"name":"","type":"string","internalType":"string"}],"outputs":[{"name":"","type":"uint256","internalType":"uint256"}],"stateMutability":"view"},{"type":"event","name":"ApprovalForAll","inputs":[{"name":"account","type":"address","indexed":true,"internalType":"address"},{"name":"operator","type":"address","indexed":true,"internalType":"address"},{"name":"approved","type":"bool","indexed":false,"internalType":"bool"}],"anonymous":false},{"type":"event","name":"MetadataUrlUpdated","inputs":[{"name":"tokenId","type":"uint256","indexed":true,"internalType":"uint256"},{"name":"oldUrl","type":"string","indexed":false,"internalType":"string"},{"name":"newUrl","type":"string","indexed":false,"internalType":"string"}],"anonymous":false},{"type":"event","name":"OwnershipTransferred","inputs":[{"name":"tokenId","type":"uint256","indexed":true,"internalType":"uint256"},{"name":"from","type":"address","indexed":true,"internalType":"address"},{"name":"to","type":"address","indexed":true,"internalType":"address"},{"name":"reason","type":"string","indexed":false,"internalType":"string"}],"anonymous":false},{"type":"event","name":"Paused","inputs":[{"name":"account","type":"address","indexed":false,"internalType":"address"}],"anonymous":false},{"type":"event","name":"ProductRegistered","inputs":[{"name":"tokenId","type":"uint256","indexed":true,"internalType":"uint256"},{"name":"manufacturer","type":"address","indexed":true,"internalType":"address"},{"name":"metadataHash","type":"bytes32","indexed":false,"internalType":"bytes32"},{"name":"metadataUrl","type":"string","indexed":false,"internalType":"string"}],"anonymous":false},{"type":"event","name":"RoleAdminChanged","inputs":[{"name":"role","type":"bytes32","indexed":true,"internalType":"bytes32"},{"name":"previousAdminRole","type":"bytes32","indexed":true,"internalType":"bytes32"},{"name":"newAdminRole","type":"bytes32","indexed":true,"internalType":"bytes32"}],"anonymous":false},{"type":"event","name":"RoleGranted","inputs":[{"name":"role","type":"bytes32","indexed":true,"internalType":"bytes32"},{"name":"account","type":"address","indexed":true,"internalType":"address"},{"name":"sender","type":"address","indexed":true,"internalType":"address"}],"anonymous":false},{"type":"event","name":"RoleRevoked","inputs":[{"name":"role","type":"bytes32","indexed":true,"internalType":"bytes32"},{"name":"account","type":"address","indexed":true,"internalType":"address"},{"name":"sender","type":"address","indexed":true,"internalType":"address"}],"anonymous":false},{"type":"event","name":"TransferBatch","inputs":[{"name":"operator","type":"address","indexed":true,"internalType":"address"},{"name":"from","type":"address","indexed":true,"internalType":"address"},{"name":"to","type":"address","indexed":true,"internalType":"address"},{"name":"ids","type":"uint256[]","indexed":false,"internalType":"uint256[]"},{"name":"values","type":"uint256[]","indexed":false,"internalType":"uint256[]"}],"anonymous":false},{"type":"event","name":"TransferSingle","inputs":[{"name":"operator","type":"address","indexed":true,"internalType":"address"},{"name":"from","type":"address","indexed":true,"internalType":"address"},{"name":"to","type":"address","indexed":true,"internalType":"address"},{"name":"id","type":"uint256","indexed":false,"internalType":"uint256"},{"name":"value","type":"uint256","indexed":false,"internalType":"uint256"}],"anonymous":false},{"type":"event","name":"URI","inputs":[{"name":"value","type":"string","indexed":false,"internalType":"string"},{"name":"id","type":"uint256","indexed":true,"internalType":"uint256"}],"anonymous":false},{"type":"event","name":"Unpaused","inputs":[{"name":"account","type":"address","indexed":false,"internalType":"address"}],"anonymous":false},{"type":"error","name":"AccessControlBadConfirmation","inputs":[]},{"type":"error","name":"AccessControlUnauthorizedAccount","inputs":[{"name":"account","type":"address","internalType":"address"},{"name":"neededRole","type":"bytes32","internalType":"bytes32"}]},{"type":"error","name":"ERC1155InsufficientBalance","inputs":[{"name":"sender","type":"address","internalType":"address"},{"name":"balance","type":"uint256","internalType":"uint256"},{"name":"needed","type":"uint256","internalType":"uint256"},{"name":"tokenId","type":"uint256","internalType":"uint256"}]},{"type":"error","name":"ERC1155InvalidApprover","inputs":[{"name":"approver","type":"address","internalType":"address"}]},{"type":"error","name":"ERC1155InvalidArrayLength","inputs":[{"name":"idsLength","type":"uint256","internalType":"uint256"},{"name":"valuesLength","type":"uint256","internalType":"uint256"}]},{"type":"error","name":"ERC1155InvalidOperator","inputs":[{"name":"operator","type":"address","internalType":"address"}]},{"type":"error","name":"ERC1155InvalidReceiver","inputs":[{"name":"receiver","type":"address","internalType":"address"}]},{"type":"error","name":"ERC1155InvalidSender","inputs":[{"name":"sender","type":"address","internalType":"address"}]},{"type":"error","name":"ERC1155MissingApprovalForAll","inputs":[{"name":"operator","type":"address","internalType":"address"},{"name":"owner","type":"address","internalType":"address"}]},{"type":"error","name":"EnforcedPause","inputs":[]},{"type":"error","name":"ExpectedPause","inputs":[]}],"bytecode":{"object":"0x60806040526001600d55348015610014575f5ffd5b5060405180602001604052805f8152506100338161007d60201b60201c565b506100465f5f1b3361009060201b60201c565b506100777f545cd3008e8205610ec65c7ca17f448815c2ab7eaad3609fe9d3a0aed33565363361009060201b60201c565b506104fd565b806002908161008c919061042e565b5050565b5f6100a1838361018660201b60201c565b61017c57600160035f8581526020019081526020015f205f015f8473ffffffffffffffffffffffffffffffffffffffff1673ffffffffffffffffffffffffffffffffffffffff1681526020019081526020015f205f6101000a81548160ff0219169083151502179055506101196101ea60201b60201c565b73ffffffffffffffffffffffffffffffffffffffff168273ffffffffffffffffffffffffffffffffffffffff16847f2f8788117e7eff1d82e926ec794901d17c78024a50270940304540a733656f0d60405160405180910390a460019050610180565b5f90505b92915050565b5f60035f8481526020019081526020015f205f015f8373ffffffffffffffffffffffffffffffffffffffff1673ffffffffffffffffffffffffffffffffffffffff1681526020019081526020015f205f9054906101000a900460ff16905092915050565b5f33905090565b5f81519050919050565b7f4e487b71000000000000000000000000000000000000000000000000000000005f52604160045260245ffd5b7f4e487b71000000000000000000000000000000000000000000000000000000005f52602260045260245ffd5b5f600282049050600182168061026c57607f821691505b60208210810361027f5761027e610228565b5b50919050565b5f819050815f5260205f209050919050565b5f6020601f8301049050919050565b5f82821b905092915050565b5f600883026102e17fffffffffffffffffffffffffffffffffffffffffffffffffffffffffffffffff826102a6565b6102eb86836102a6565b95508019841693508086168417925050509392505050565b5f819050919050565b5f819050919050565b5f61032f61032a61032584610303565b61030c565b610303565b9050919050565b5f819050919050565b61034883610315565b61035c61035482610336565b8484546102b2565b825550505050565b5f5f905090565b610373610364565b61037e81848461033f565b505050565b5b818110156103a1576103965f8261036b565b600181019050610384565b5050565b601f8211156103e6576103b781610285565b6103c084610297565b810160208510156103cf578190505b6103e36103db85610297565b830182610383565b50505b505050565b5f82821c905092915050565b5f6104065f19846008026103eb565b1980831691505092915050565b5f61041e83836103f7565b9150826002028217905092915050565b610437826101f1565b67ffffffffffffffff8111156104505761044f6101fb565b5b61045a8254610255565b6104658282856103a5565b5f60209050601f831160018114610496575f8415610484578287015190505b61048e8582610413565b8655506104f5565b601f1984166104a486610285565b5f5b828110156104cb578489015182556001820191506020850194506020810190506104a6565b868310156104e857848901516104e4601f8916826103f7565b8355505b6001600288020188555050505b505050505050565b6160ad8061050a5f395ff3fe608060405234801561000f575f5ffd5b506004361061025a575f3560e01c80636b37f63411610144578063bd85b039116100c1578063dc04d24711610085578063dc04d247146107ac578063e41ca8e8146107ca578063e985e9c5146107fa578063f0bd87cc1461082a578063f242432a14610848578063f9f806e1146108645761025a565b8063bd85b039146106cd578063c8d256c6146106fd578063c9cf2adc1461072e578063d547741f14610760578063d661743c1461077c5761025a565b806391d148541161010857806391d1485414610615578063965288b014610645578063a217fddf14610663578063a22cb46514610681578063a2e8b6f91461069d5761025a565b80636b37f6341461056857806375794a3c146105985780637acc0b20146105b65780638456cb59146105ef5780638bba2a0a146105f95761025a565b80632eb2c2d6116101dd57806344886cae116101a157806344886cae146104815780634e1273f4146104b25780634f558e79146104e257806355c4281e146105125780635c975abb1461052e5780635d2355361461054c5761025a565b80632eb2c2d6146103f35780632f2ff15d1461040f57806336568abe1461042b5780633c7eab23146104475780633f4ba83a146104775761025a565b806312aa15811161022457806312aa15811461033a57806318160ddd146103565780631c85d6aa146103745780632115e7bf146103a5578063248a9ca3146103c35761025a565b80623fd5e71461025e578062fdd58e1461028e57806301ffc9a7146102be5780630e89341c146102ee5780630ea5ef3d1461031e575b5f5ffd5b610278600480360381019061027391906147f5565b610880565b6040516102859190614838565b60405180910390f35b6102a860048036038101906102a3919061487b565b6108c9565b6040516102b59190614838565b60405180910390f35b6102d860048036038101906102d3919061490e565b61091e565b6040516102e59190614953565b60405180910390f35b6103086004803603810190610303919061496c565b61092f565b6040516103159190614a07565b60405180910390f35b610338600480360381019061033391906147f5565b610a31565b005b610354600480360381019061034f9190614b53565b610a6c565b005b61035e610d26565b60405161036b9190614838565b60405180910390f35b61038e60048036038101906103899190614bad565b610d2f565b60405161039c929190614ece565b60405180910390f35b6103ad611240565b6040516103ba9190614f12565b60405180910390f35b6103dd60048036038101906103d89190614f55565b611264565b6040516103ea9190614f12565b60405180910390f35b61040d600480360381019061040891906150e2565b611281565b005b610429600480360381019061042491906151ad565b611328565b005b610445600480360381019061044091906151ad565b61134a565b005b610461600480360381019061045c919061487b565b6113c5565b60405161046e9190614838565b60405180910390f35b61047f6113e5565b005b61049b600480360381019061049691906151eb565b6113fc565b6040516104a99291906152e3565b60405180910390f35b6104cc60048036038101906104c791906153d8565b611a21565b6040516104d9919061544e565b60405180910390f35b6104fc60048036038101906104f7919061496c565b611b2b565b6040516105099190614953565b60405180910390f35b61052c600480360381019061052791906147f5565b611b3e565b005b610536611b79565b6040516105439190614953565b60405180910390f35b6105666004803603810190610561919061546e565b611b8e565b005b610582600480360381019061057d91906154da565b611d1c565b60405161058f9190614838565b60405180910390f35b6105a0611d49565b6040516105ad9190614838565b60405180910390f35b6105d060048036038101906105cb919061496c565b611d4f565b6040516105e69a99989796959493929190615530565b60405180910390f35b6105f7612069565b005b610613600480360381019061060e91906147f5565b612080565b005b61062f600480360381019061062a91906151ad565b6120bb565b60405161063c9190614953565b60405180910390f35b61064d61211f565b60405161065a9190614f12565b60405180910390f35b61066b612143565b6040516106789190614f12565b60405180910390f35b61069b60048036038101906106969190615617565b612149565b005b6106b760048036038101906106b29190615655565b61215f565b6040516106c49190614838565b60405180910390f35b6106e760048036038101906106e2919061496c565b6124d5565b6040516106f49190614838565b60405180910390f35b610717600480360381019061071291906147f5565b6124ef565b6040516107259291906152e3565b60405180910390f35b61074860048036038101906107439190614bad565b612a1e565b60405161075793929190615792565b60405180910390f35b61077a600480360381019061077591906151ad565b612b03565b005b6107966004803603810190610791919061487b565b612b25565b6040516107a39190614838565b60405180910390f35b6107b4612b50565b6040516107c19190614f12565b60405180910390f35b6107e460048036038101906107df919061496c565b612b74565b6040516107f19190614a07565b60405180910390f35b610814600480360381019061080f91906157ce565b612c0f565b6040516108219190614953565b60405180910390f35b610832612c9d565b60405161083f9190614f12565b60405180910390f35b610862600480360381019061085d919061580c565b612cc1565b005b61087e600480360381019061087991906147f5565b612d68565b005b5f600b5f8373ffffffffffffffffffffffffffffffffffffffff1673ffffffffffffffffffffffffffffffffffffffff1681526020019081526020015f20805490509050919050565b5f5f5f8381526020019081526020015f205f8473ffffffffffffffffffffffffffffffffffffffff1673ffffffffffffffffffffffffffffffffffffffff1681526020019081526020015f2054905092915050565b5f61092882612da3565b9050919050565b606060075f8381526020019081526020015f2060080160149054906101000a900460ff16610992576040517f08c379a0000000000000000000000000000000000000000000000000000000008152600401610989906158e9565b60405180910390fd5b60095f8381526020019081526020015f2080546109ae90615934565b80601f01602080910402602001604051908101604052809291908181526020018280546109da90615934565b8015610a255780601f106109fc57610100808354040283529160200191610a25565b820191905f5260205f20905b815481529060010190602001808311610a0857829003601f168201915b50505050509050919050565b5f5f1b610a3d81612e1c565b610a677f545cd3008e8205610ec65c7ca17f448815c2ab7eaad3609fe9d3a0aed335653683612e30565b505050565b7f545cd3008e8205610ec65c7ca17f448815c2ab7eaad3609fe9d3a0aed3356536610a9681612e1c565b5f60085f8581526020019081526020015f20805480602002602001604051908101604052809291908181526020015f905b82821015610be5578382905f5260205f2090600302016040518060600160405290815f82015f9054906101000a900473ffffffffffffffffffffffffffffffffffffffff1673ffffffffffffffffffffffffffffffffffffffff1673ffffffffffffffffffffffffffffffffffffffff16815260200160018201548152602001600282018054610b5690615934565b80601f0160208091040260200160405190810160405280929190818152602001828054610b8290615934565b8015610bcd5780601f10610ba457610100808354040283529160200191610bcd565b820191905f5260205f20905b815481529060010190602001808311610bb057829003601f168201915b50505050508152505081526020019060010190610ac7565b5050505090505f8160018351610bfb9190615991565b81518110610c0c57610c0b6159c4565b5b60200260200101515f01519050610c2581866001612f1a565b60085f8681526020019081526020015f2060405180606001604052805f73ffffffffffffffffffffffffffffffffffffffff16815260200142815260200186815250908060018154018082558091505060019003905f5260205f2090600302015f909190919091505f820151815f015f6101000a81548173ffffffffffffffffffffffffffffffffffffffff021916908373ffffffffffffffffffffffffffffffffffffffff160217905550602082015181600101556040820151816002019081610cf09190615b91565b5050505f60075f8781526020019081526020015f2060080160146101000a81548160ff0219169083151502179055505050505050565b5f600654905090565b6060805f60018585610d419190615991565b610d4b9190615c60565b90508067ffffffffffffffff811115610d6757610d66614a2f565b5b604051908082528060200260200182016040528015610da057816020015b610d8d614724565b815260200190600190039081610d855790505b5092508067ffffffffffffffff811115610dbd57610dbc614a2f565b5b604051908082528060200260200182016040528015610deb5781602001602082028036833780820191505090505b5091505f5f90505b81811015611237575f8187610e089190615c60565b9050600d5481108015610e39575060075f8281526020019081526020015f2060080160149054906101000a900460ff165b156112025760075f8281526020019081526020015f20604051806101400160405290815f8201548152602001600182018054610e7490615934565b80601f0160208091040260200160405190810160405280929190818152602001828054610ea090615934565b8015610eeb5780601f10610ec257610100808354040283529160200191610eeb565b820191905f5260205f20905b815481529060010190602001808311610ece57829003601f168201915b50505050508152602001600282018054610f0490615934565b80601f0160208091040260200160405190810160405280929190818152602001828054610f3090615934565b8015610f7b5780601f10610f5257610100808354040283529160200191610f7b565b820191905f5260205f20905b815481529060010190602001808311610f5e57829003601f168201915b50505050508152602001600382018054610f9490615934565b80601f0160208091040260200160405190810160405280929190818152602001828054610fc090615934565b801561100b5780601f10610fe25761010080835404028352916020019161100b565b820191905f5260205f20905b815481529060010190602001808311610fee57829003601f168201915b505050505081526020016004820154815260200160058201805461102e90615934565b80601f016020809104026020016040519081016040528092919081815260200182805461105a90615934565b80156110a55780601f1061107c576101008083540402835291602001916110a5565b820191905f5260205f20905b81548152906001019060200180831161108857829003601f168201915b50505050508152602001600682015481526020016007820180546110c890615934565b80601f01602080910402602001604051908101604052809291908181526020018280546110f490615934565b801561113f5780601f106111165761010080835404028352916020019161113f565b820191905f5260205f20905b81548152906001019060200180831161112257829003601f168201915b50505050508152602001600882015f9054906101000a900473ffffffffffffffffffffffffffffffffffffffff1673ffffffffffffffffffffffffffffffffffffffff1673ffffffffffffffffffffffffffffffffffffffff1681526020016008820160149054906101000a900460ff1615151515815250508583815181106111cb576111ca6159c4565b5b602002602001018190525060018483815181106111eb576111ea6159c4565b5b602002602001019015159081151581525050611229565b5f848381518110611216576112156159c4565b5b6020026020010190151590811515815250505b508080600101915050610df3565b50509250929050565b7f2a5f906c256a5d799494fcd066e1f6c077689de1cdb65052a1624de4bace99bf81565b5f60035f8381526020019081526020015f20600101549050919050565b5f61128a612fbc565b90508073ffffffffffffffffffffffffffffffffffffffff168673ffffffffffffffffffffffffffffffffffffffff16141580156112cf57506112cd8682612c0f565b155b156113135780866040517fe237d92200000000000000000000000000000000000000000000000000000000815260040161130a929190615c93565b60405180910390fd5b6113208686868686612fc3565b505050505050565b61133182611264565b61133a81612e1c565b6113448383612e30565b50505050565b611352612fbc565b73ffffffffffffffffffffffffffffffffffffffff168173ffffffffffffffffffffffffffffffffffffffff16146113b6576040517f6697b23200000000000000000000000000000000000000000000000000000000815260040160405180910390fd5b6113c082826130b7565b505050565b600c602052815f5260405f20602052805f5260405f205f91509150505481565b5f5f1b6113f181612e1c565b6113f96131a1565b50565b6060805f600b5f8773ffffffffffffffffffffffffffffffffffffffff1673ffffffffffffffffffffffffffffffffffffffff1681526020019081526020015f2080548060200260200160405190810160405280929190818152602001828054801561148557602002820191905f5260205f20905b815481526020019060010190808311611471575b505050505090505f81519050808610158061149f57505f85145b1561154c575f67ffffffffffffffff8111156114be576114bd614a2f565b5b6040519080825280602002602001820160405280156114f757816020015b6114e4614724565b8152602001906001900390816114dc5790505b505f67ffffffffffffffff81111561151257611511614a2f565b5b6040519080825280602002602001820160405280156115405781602001602082028036833780820191505090505b50935093505050611a19565b5f85876115599190615c60565b905081811115611567578190505b5f87826115749190615991565b90508067ffffffffffffffff8111156115905761158f614a2f565b5b6040519080825280602002602001820160405280156115c957816020015b6115b6614724565b8152602001906001900390816115ae5790505b5095508067ffffffffffffffff8111156115e6576115e5614a2f565b5b6040519080825280602002602001820160405280156116145781602001602082028036833780820191505090505b5094505f5f90505b81811015611a13575f85828b6116329190615c60565b81518110611643576116426159c4565b5b6020026020010151905080878381518110611661576116606159c4565b5b60200260200101818152505060075f8281526020019081526020015f20604051806101400160405290815f82015481526020016001820180546116a390615934565b80601f01602080910402602001604051908101604052809291908181526020018280546116cf90615934565b801561171a5780601f106116f15761010080835404028352916020019161171a565b820191905f5260205f20905b8154815290600101906020018083116116fd57829003601f168201915b5050505050815260200160028201805461173390615934565b80601f016020809104026020016040519081016040528092919081815260200182805461175f90615934565b80156117aa5780601f10611781576101008083540402835291602001916117aa565b820191905f5260205f20905b81548152906001019060200180831161178d57829003601f168201915b505050505081526020016003820180546117c390615934565b80601f01602080910402602001604051908101604052809291908181526020018280546117ef90615934565b801561183a5780601f106118115761010080835404028352916020019161183a565b820191905f5260205f20905b81548152906001019060200180831161181d57829003601f168201915b505050505081526020016004820154815260200160058201805461185d90615934565b80601f016020809104026020016040519081016040528092919081815260200182805461188990615934565b80156118d45780601f106118ab576101008083540402835291602001916118d4565b820191905f5260205f20905b8154815290600101906020018083116118b757829003601f168201915b50505050508152602001600682015481526020016007820180546118f790615934565b80601f016020809104026020016040519081016040528092919081815260200182805461192390615934565b801561196e5780601f106119455761010080835404028352916020019161196e565b820191905f5260205f20905b81548152906001019060200180831161195157829003601f168201915b50505050508152602001600882015f9054906101000a900473ffffffffffffffffffffffffffffffffffffffff1673ffffffffffffffffffffffffffffffffffffffff1673ffffffffffffffffffffffffffffffffffffffff1681526020016008820160149054906101000a900460ff1615151515815250508883815181106119fa576119f96159c4565b5b602002602001018190525050808060010191505061161c565b50505050505b935093915050565b60608151835114611a6d57815183516040517f5b059991000000000000000000000000000000000000000000000000000000008152600401611a64929190615cba565b60405180910390fd5b5f835167ffffffffffffffff811115611a8957611a88614a2f565b5b604051908082528060200260200182016040528015611ab75781602001602082028036833780820191505090505b5090505f5f90505b8451811015611b2057611af6611ade828761320290919063ffffffff16565b611af1838761321590919063ffffffff16565b6108c9565b828281518110611b0957611b086159c4565b5b602002602001018181525050806001019050611abf565b508091505092915050565b5f5f611b36836124d5565b119050919050565b5f5f1b611b4a81612e1c565b611b747feefb95e842a3287179d933b4460be539a1d5af11aa8b325bb45c5c8dc92de4ed83612e30565b505050565b5f60045f9054906101000a900460ff16905090565b5f5f1b611b9a81612e1c565b611ba2613228565b5f60095f8681526020019081526020015f208054611bbf90615934565b80601f0160208091040260200160405190810160405280929190818152602001828054611beb90615934565b8015611c365780601f10611c0d57610100808354040283529160200191611c36565b820191905f5260205f20905b815481529060010190602001808311611c1957829003601f168201915b50505050509050600a81604051611c4d9190615d1b565b90815260200160405180910390205f90558360095f8781526020019081526020015f209081611c7c9190615b91565b5084600a85604051611c8e9190615d1b565b9081526020016040518091039020819055508360075f8781526020019081526020015f206007019081611cc19190615b91565b508260075f8781526020019081526020015f2060060181905550847f8a5da1466f39ac04980e72e339e0a13a7aa8a1f28c3898b5a87b3ccefca901f58286604051611d0d929190615d31565b60405180910390a25050505050565b600a818051602081018201805184825260208301602085012081835280955050505050505f915090505481565b600d5481565b6007602052805f5260405f205f91509050805f015490806001018054611d7490615934565b80601f0160208091040260200160405190810160405280929190818152602001828054611da090615934565b8015611deb5780601f10611dc257610100808354040283529160200191611deb565b820191905f5260205f20905b815481529060010190602001808311611dce57829003601f168201915b505050505090806002018054611e0090615934565b80601f0160208091040260200160405190810160405280929190818152602001828054611e2c90615934565b8015611e775780601f10611e4e57610100808354040283529160200191611e77565b820191905f5260205f20905b815481529060010190602001808311611e5a57829003601f168201915b505050505090806003018054611e8c90615934565b80601f0160208091040260200160405190810160405280929190818152602001828054611eb890615934565b8015611f035780601f10611eda57610100808354040283529160200191611f03565b820191905f5260205f20905b815481529060010190602001808311611ee657829003601f168201915b505050505090806004015490806005018054611f1e90615934565b80601f0160208091040260200160405190810160405280929190818152602001828054611f4a90615934565b8015611f955780601f10611f6c57610100808354040283529160200191611f95565b820191905f5260205f20905b815481529060010190602001808311611f7857829003601f168201915b505050505090806006015490806007018054611fb090615934565b80601f0160208091040260200160405190810160405280929190818152602001828054611fdc90615934565b80156120275780601f10611ffe57610100808354040283529160200191612027565b820191905f5260205f20905b81548152906001019060200180831161200a57829003601f168201915b505050505090806008015f9054906101000a900473ffffffffffffffffffffffffffffffffffffffff16908060080160149054906101000a900460ff1690508a565b5f5f1b61207581612e1c565b61207d613269565b50565b5f5f1b61208c81612e1c565b6120b67ffbd454f36a7e1a388bd6fc3ab10d434aa4578f811acbbcf33afb1c697486313c83612e30565b505050565b5f60035f8481526020019081526020015f205f015f8373ffffffffffffffffffffffffffffffffffffffff1673ffffffffffffffffffffffffffffffffffffffff1681526020019081526020015f205f9054906101000a900460ff16905092915050565b7feefb95e842a3287179d933b4460be539a1d5af11aa8b325bb45c5c8dc92de4ed81565b5f5f1b81565b61215b612154612fbc565b83836132cb565b5050565b5f7feefb95e842a3287179d933b4460be539a1d5af11aa8b325bb45c5c8dc92de4ed61218a81612e1c565b612192613228565b5f600d549050600d5f8154809291906121aa90615d66565b91905055508560095f8381526020019081526020015f2090816121cd9190615b91565b5080600a876040516121df9190615d1b565b9081526020016040518091039020819055506040518061014001604052808281526020018b81526020018a81526020018981526020014281526020018881526020018681526020018781526020013373ffffffffffffffffffffffffffffffffffffffff1681526020016001151581525060075f8381526020019081526020015f205f820151815f0155602082015181600101908161227e9190615b91565b5060408201518160020190816122949190615b91565b5060608201518160030190816122aa9190615b91565b506080820151816004015560a08201518160050190816122ca9190615b91565b5060c0820151816006015560e08201518160070190816122ea9190615b91565b50610100820151816008015f6101000a81548173ffffffffffffffffffffffffffffffffffffffff021916908373ffffffffffffffffffffffffffffffffffffffff1602179055506101208201518160080160146101000a81548160ff0219169083151502179055509050506123708b828660405180602001604052805f815250613434565b60085f8281526020019081526020015f2060405180606001604052808d73ffffffffffffffffffffffffffffffffffffffff1681526020014281526020016040518060400160405280600c81526020017f6d616e7566616374757265640000000000000000000000000000000000000000815250815250908060018154018082558091505060019003905f5260205f2090600302015f909190919091505f820151815f015f6101000a81548173ffffffffffffffffffffffffffffffffffffffff021916908373ffffffffffffffffffffffffffffffffffffffff1602179055506020820151816001015560408201518160020190816124709190615b91565b5050503373ffffffffffffffffffffffffffffffffffffffff16817f2376aea4954f68ea22569086517af25c4a8b7f6555d4a92001aeba1f66ee960087896040516124bc929190615dad565b60405180910390a3809250505098975050505050505050565b5f60055f8381526020019081526020015f20549050919050565b6060805f600b5f8573ffffffffffffffffffffffffffffffffffffffff1673ffffffffffffffffffffffffffffffffffffffff1681526020019081526020015f2080548060200260200160405190810160405280929190818152602001828054801561257857602002820191905f5260205f20905b815481526020019060010190808311612564575b505050505090505f815190508067ffffffffffffffff81111561259e5761259d614a2f565b5b6040519080825280602002602001820160405280156125d757816020015b6125c4614724565b8152602001906001900390816125bc5790505b5093508067ffffffffffffffff8111156125f4576125f3614a2f565b5b6040519080825280602002602001820160405280156126225781602001602082028036833780820191505090505b5092505f5f90505b81811015612a16575f838281518110612646576126456159c4565b5b6020026020010151905080858381518110612664576126636159c4565b5b60200260200101818152505060075f8281526020019081526020015f20604051806101400160405290815f82015481526020016001820180546126a690615934565b80601f01602080910402602001604051908101604052809291908181526020018280546126d290615934565b801561271d5780601f106126f45761010080835404028352916020019161271d565b820191905f5260205f20905b81548152906001019060200180831161270057829003601f168201915b5050505050815260200160028201805461273690615934565b80601f016020809104026020016040519081016040528092919081815260200182805461276290615934565b80156127ad5780601f10612784576101008083540402835291602001916127ad565b820191905f5260205f20905b81548152906001019060200180831161279057829003601f168201915b505050505081526020016003820180546127c690615934565b80601f01602080910402602001604051908101604052809291908181526020018280546127f290615934565b801561283d5780601f106128145761010080835404028352916020019161283d565b820191905f5260205f20905b81548152906001019060200180831161282057829003601f168201915b505050505081526020016004820154815260200160058201805461286090615934565b80601f016020809104026020016040519081016040528092919081815260200182805461288c90615934565b80156128d75780601f106128ae576101008083540402835291602001916128d7565b820191905f5260205f20905b8154815290600101906020018083116128ba57829003601f168201915b50505050508152602001600682015481526020016007820180546128fa90615934565b80601f016020809104026020016040519081016040528092919081815260200182805461292690615934565b80156129715780601f1061294857610100808354040283529160200191612971565b820191905f5260205f20905b81548152906001019060200180831161295457829003601f168201915b50505050508152602001600882015f9054906101000a900473ffffffffffffffffffffffffffffffffffffffff1673ffffffffffffffffffffffffffffffffffffffff1673ffffffffffffffffffffffffffffffffffffffff1681526020016008820160149054906101000a900460ff1615151515815250508683815181106129fd576129fc6159c4565b5b602002602001018190525050808060010191505061262a565b505050915091565b6008602052815f5260405f208181548110612a37575f80fd5b905f5260205f2090600302015f9150915050805f015f9054906101000a900473ffffffffffffffffffffffffffffffffffffffff1690806001015490806002018054612a8290615934565b80601f0160208091040260200160405190810160405280929190818152602001828054612aae90615934565b8015612af95780601f10612ad057610100808354040283529160200191612af9565b820191905f5260205f20905b815481529060010190602001808311612adc57829003601f168201915b5050505050905083565b612b0c82611264565b612b1581612e1c565b612b1f83836130b7565b50505050565b600b602052815f5260405f208181548110612b3e575f80fd5b905f5260205f20015f91509150505481565b7f545cd3008e8205610ec65c7ca17f448815c2ab7eaad3609fe9d3a0aed335653681565b6009602052805f5260405f205f915090508054612b9090615934565b80601f0160208091040260200160405190810160405280929190818152602001828054612bbc90615934565b8015612c075780601f10612bde57610100808354040283529160200191612c07565b820191905f5260205f20905b815481529060010190602001808311612bea57829003601f168201915b505050505081565b5f60015f8473ffffffffffffffffffffffffffffffffffffffff1673ffffffffffffffffffffffffffffffffffffffff1681526020019081526020015f205f8373ffffffffffffffffffffffffffffffffffffffff1673ffffffffffffffffffffffffffffffffffffffff1681526020019081526020015f205f9054906101000a900460ff16905092915050565b7ffbd454f36a7e1a388bd6fc3ab10d434aa4578f811acbbcf33afb1c697486313c81565b5f612cca612fbc565b90508073ffffffffffffffffffffffffffffffffffffffff168673ffffffffffffffffffffffffffffffffffffffff1614158015612d0f5750612d0d8682612c0f565b155b15612d535780866040517fe237d922000000000000000000000000000000000000000000000000000000008152600401612d4a929190615c93565b60405180910390fd5b612d6086868686866134c9565b505050505050565b5f5f1b612d7481612e1c565b612d9e7f2a5f906c256a5d799494fcd066e1f6c077689de1cdb65052a1624de4bace99bf83612e30565b505050565b5f7f7965db0b000000000000000000000000000000000000000000000000000000007bffffffffffffffffffffffffffffffffffffffffffffffffffffffff1916827bffffffffffffffffffffffffffffffffffffffffffffffffffffffff19161480612e155750612e14826135cf565b5b9050919050565b612e2d81612e28612fbc565b6136b0565b50565b5f612e3b83836120bb565b612f1057600160035f8581526020019081526020015f205f015f8473ffffffffffffffffffffffffffffffffffffffff1673ffffffffffffffffffffffffffffffffffffffff1681526020019081526020015f205f6101000a81548160ff021916908315150217905550612ead612fbc565b73ffffffffffffffffffffffffffffffffffffffff168273ffffffffffffffffffffffffffffffffffffffff16847f2f8788117e7eff1d82e926ec794901d17c78024a50270940304540a733656f0d60405160405180910390a460019050612f14565b5f90505b92915050565b5f73ffffffffffffffffffffffffffffffffffffffff168373ffffffffffffffffffffffffffffffffffffffff1603612f8a575f6040517f01a83514000000000000000000000000000000000000000000000000000000008152600401612f819190615ddb565b60405180910390fd5b5f5f612f968484613701565b91509150612fb5855f848460405180602001604052805f815250613731565b5050505050565b5f33905090565b5f73ffffffffffffffffffffffffffffffffffffffff168473ffffffffffffffffffffffffffffffffffffffff1603613033575f6040517f57f447ce00000000000000000000000000000000000000000000000000000000815260040161302a9190615ddb565b60405180910390fd5b5f73ffffffffffffffffffffffffffffffffffffffff168573ffffffffffffffffffffffffffffffffffffffff16036130a3575f6040517f01a8351400000000000000000000000000000000000000000000000000000000815260040161309a9190615ddb565b60405180910390fd5b6130b08585858585613731565b5050505050565b5f6130c283836120bb565b15613197575f60035f8581526020019081526020015f205f015f8473ffffffffffffffffffffffffffffffffffffffff1673ffffffffffffffffffffffffffffffffffffffff1681526020019081526020015f205f6101000a81548160ff021916908315150217905550613134612fbc565b73ffffffffffffffffffffffffffffffffffffffff168273ffffffffffffffffffffffffffffffffffffffff16847ff6391f5c32d9c69d2a47ea670b442974b53935d1edc7fd64eb21e047a839171b60405160405180910390a46001905061319b565b5f90505b92915050565b6131a96137dd565b5f60045f6101000a81548160ff0219169083151502179055507f5db9ee0a495bf2e6ff9c91a7834c1ba4fdd244a5e8aa4e537bd38aeae4b073aa6131eb612fbc565b6040516131f89190615ddb565b60405180910390a1565b5f60208202602084010151905092915050565b5f60208202602084010151905092915050565b613230611b79565b15613267576040517fd93c066500000000000000000000000000000000000000000000000000000000815260040160405180910390fd5b565b613271613228565b600160045f6101000a81548160ff0219169083151502179055507f62e78cea01bee320cd4e420270b5ea74000d11b0c9f74754ebdbfc544b05a2586132b4612fbc565b6040516132c19190615ddb565b60405180910390a1565b5f73ffffffffffffffffffffffffffffffffffffffff168273ffffffffffffffffffffffffffffffffffffffff160361333b575f6040517fced3e1000000000000000000000000000000000000000000000000000000000081526004016133329190615ddb565b60405180910390fd5b8060015f8573ffffffffffffffffffffffffffffffffffffffff1673ffffffffffffffffffffffffffffffffffffffff1681526020019081526020015f205f8473ffffffffffffffffffffffffffffffffffffffff1673ffffffffffffffffffffffffffffffffffffffff1681526020019081526020015f205f6101000a81548160ff0219169083151502179055508173ffffffffffffffffffffffffffffffffffffffff168373ffffffffffffffffffffffffffffffffffffffff167f17307eab39ab6107e8899845ad3d59bd9653f200f220920489ca2b5937696c31836040516134279190614953565b60405180910390a3505050565b5f73ffffffffffffffffffffffffffffffffffffffff168473ffffffffffffffffffffffffffffffffffffffff16036134a4575f6040517f57f447ce00000000000000000000000000000000000000000000000000000000815260040161349b9190615ddb565b60405180910390fd5b5f5f6134b08585613701565b915091506134c15f87848487613731565b505050505050565b5f73ffffffffffffffffffffffffffffffffffffffff168473ffffffffffffffffffffffffffffffffffffffff1603613539575f6040517f57f447ce0000000000000000000000000000000000000000000000000000000081526004016135309190615ddb565b60405180910390fd5b5f73ffffffffffffffffffffffffffffffffffffffff168573ffffffffffffffffffffffffffffffffffffffff16036135a9575f6040517f01a835140000000000000000000000000000000000000000000000000000000081526004016135a09190615ddb565b60405180910390fd5b5f5f6135b58585613701565b915091506135c68787848487613731565b50505050505050565b5f7fd9b67a26000000000000000000000000000000000000000000000000000000007bffffffffffffffffffffffffffffffffffffffffffffffffffffffff1916827bffffffffffffffffffffffffffffffffffffffffffffffffffffffff1916148061369957507f0e89341c000000000000000000000000000000000000000000000000000000007bffffffffffffffffffffffffffffffffffffffffffffffffffffffff1916827bffffffffffffffffffffffffffffffffffffffffffffffffffffffff1916145b806136a957506136a88261381d565b5b9050919050565b6136ba82826120bb565b6136fd5780826040517fe2517d3f0000000000000000000000000000000000000000000000000000000081526004016136f4929190615df4565b60405180910390fd5b5050565b60608060405191506001825283602083015260408201905060018152826020820152604081016040529250929050565b61373d85858585613886565b5f73ffffffffffffffffffffffffffffffffffffffff168473ffffffffffffffffffffffffffffffffffffffff16146137d6575f613779612fbc565b905060018451036137c5575f6137985f8661321590919063ffffffff16565b90505f6137ae5f8661321590919063ffffffff16565b90506137be838989858589613c34565b50506137d4565b6137d3818787878787613de3565b5b505b5050505050565b6137e5611b79565b61381b576040517f8dfc202b00000000000000000000000000000000000000000000000000000000815260040160405180910390fd5b565b5f7f01ffc9a7000000000000000000000000000000000000000000000000000000007bffffffffffffffffffffffffffffffffffffffffffffffffffffffff1916827bffffffffffffffffffffffffffffffffffffffffffffffffffffffff1916149050919050565b5f73ffffffffffffffffffffffffffffffffffffffff168473ffffffffffffffffffffffffffffffffffffffff161415806138ed57505f73ffffffffffffffffffffffffffffffffffffffff168373ffffffffffffffffffffffffffffffffffffffff1614155b156138fb576138fa613228565b5b5f5f90505b8251811015613a0b575f83828151811061391d5761391c6159c4565b5b602002602001015190505f83838151811061393b5761393a6159c4565b5b602002602001015190505f81036139535750506139fe565b5f73ffffffffffffffffffffffffffffffffffffffff168773ffffffffffffffffffffffffffffffffffffffff16146139a7575f61399188846108c9565b90508181036139a5576139a48884613f92565b5b505b5f73ffffffffffffffffffffffffffffffffffffffff168673ffffffffffffffffffffffffffffffffffffffff16146139fb575f6139e587846108c9565b90505f81036139f9576139f88784614149565b5b505b50505b8080600101915050613900565b50613a1884848484614208565b60018251148015613a5557505f73ffffffffffffffffffffffffffffffffffffffff168473ffffffffffffffffffffffffffffffffffffffff1614155b8015613a8d57505f73ffffffffffffffffffffffffffffffffffffffff168373ffffffffffffffffffffffffffffffffffffffff1614155b15613c2e5760085f835f81518110613aa857613aa76159c4565b5b602002602001015181526020019081526020015f2060405180606001604052808573ffffffffffffffffffffffffffffffffffffffff1681526020014281526020016040518060400160405280600b81526020017f7472616e73666572726564000000000000000000000000000000000000000000815250815250908060018154018082558091505060019003905f5260205f2090600302015f909190919091505f820151815f015f6101000a81548173ffffffffffffffffffffffffffffffffffffffff021916908373ffffffffffffffffffffffffffffffffffffffff160217905550602082015181600101556040820151816002019081613bac9190615b91565b5050508273ffffffffffffffffffffffffffffffffffffffff168473ffffffffffffffffffffffffffffffffffffffff16835f81518110613bf057613bef6159c4565b5b60200260200101517fc6f76974206718b625c9faba8b5ae1931f1e7a6620c23458a74554aeffef1360604051613c2590615e65565b60405180910390a45b50505050565b5f8473ffffffffffffffffffffffffffffffffffffffff163b1115613ddb578373ffffffffffffffffffffffffffffffffffffffff1663f23a6e6187878686866040518663ffffffff1660e01b8152600401613c94959493929190615ed5565b6020604051808303815f875af1925050508015613ccf57506040513d601f19601f82011682018060405250810190613ccc9190615f41565b60015b613d50573d805f8114613cfd576040519150601f19603f3d011682016040523d82523d5f602084013e613d02565b606091505b505f815103613d4857846040517f57f447ce000000000000000000000000000000000000000000000000000000008152600401613d3f9190615ddb565b60405180910390fd5b805160208201fd5b63f23a6e6160e01b7bffffffffffffffffffffffffffffffffffffffffffffffffffffffff1916817bffffffffffffffffffffffffffffffffffffffffffffffffffffffff191614613dd957846040517f57f447ce000000000000000000000000000000000000000000000000000000008152600401613dd09190615ddb565b60405180910390fd5b505b505050505050565b5f8473ffffffffffffffffffffffffffffffffffffffff163b1115613f8a578373ffffffffffffffffffffffffffffffffffffffff1663bc197c8187878686866040518663ffffffff1660e01b8152600401613e43959493929190615f6c565b6020604051808303815f875af1925050508015613e7e57506040513d601f19601f82011682018060405250810190613e7b9190615f41565b60015b613eff573d805f8114613eac576040519150601f19603f3d011682016040523d82523d5f602084013e613eb1565b606091505b505f815103613ef757846040517f57f447ce000000000000000000000000000000000000000000000000000000008152600401613eee9190615ddb565b60405180910390fd5b805160208201fd5b63bc197c8160e01b7bffffffffffffffffffffffffffffffffffffffffffffffffffffffff1916817bffffffffffffffffffffffffffffffffffffffffffffffffffffffff191614613f8857846040517f57f447ce000000000000000000000000000000000000000000000000000000008152600401613f7f9190615ddb565b60405180910390fd5b505b505050505050565b5f600b5f8473ffffffffffffffffffffffffffffffffffffffff1673ffffffffffffffffffffffffffffffffffffffff1681526020019081526020015f2090505f600c5f8573ffffffffffffffffffffffffffffffffffffffff1673ffffffffffffffffffffffffffffffffffffffff1681526020019081526020015f205f8481526020019081526020015f205490505f600183805490506140349190615991565b90508082146140cf575f838281548110614051576140506159c4565b5b905f5260205f2001549050808484815481106140705761406f6159c4565b5b905f5260205f20018190555082600c5f8873ffffffffffffffffffffffffffffffffffffffff1673ffffffffffffffffffffffffffffffffffffffff1681526020019081526020015f205f8381526020019081526020015f2081905550505b828054806140e0576140df615fd2565b5b600190038181905f5260205f20015f90559055600c5f8673ffffffffffffffffffffffffffffffffffffffff1673ffffffffffffffffffffffffffffffffffffffff1681526020019081526020015f205f8581526020019081526020015f205f90555050505050565b5f600b5f8473ffffffffffffffffffffffffffffffffffffffff1673ffffffffffffffffffffffffffffffffffffffff1681526020019081526020015f2090508080549050600c5f8573ffffffffffffffffffffffffffffffffffffffff1673ffffffffffffffffffffffffffffffffffffffff1681526020019081526020015f205f8481526020019081526020015f20819055508082908060018154018082558091505060019003905f5260205f20015f9091909190915055505050565b61421484848484614391565b5f73ffffffffffffffffffffffffffffffffffffffff168473ffffffffffffffffffffffffffffffffffffffff16036142dd575f5f90505f5f90505b83518110156142c2575f61426d828561321590919063ffffffff16565b90508060055f614286858961321590919063ffffffff16565b81526020019081526020015f205f8282546142a19190615c60565b9250508190555080836142b49190615c60565b925050806001019050614250565b508060065f8282546142d49190615c60565b92505081905550505b5f73ffffffffffffffffffffffffffffffffffffffff168373ffffffffffffffffffffffffffffffffffffffff160361438b575f5f90505f5f90505b8351811015614379575f614336828561321590919063ffffffff16565b90508060055f61434f858961321590919063ffffffff16565b81526020019081526020015f205f8282540392505081905550808301925050806001019050614319565b508060065f8282540392505081905550505b50505050565b80518251146143db57815181516040517f5b0599910000000000000000000000000000000000000000000000000000000081526004016143d2929190615cba565b60405180910390fd5b5f6143e4612fbc565b90505f5f90505b83518110156145e3575f614408828661321590919063ffffffff16565b90505f61441e838661321590919063ffffffff16565b90505f73ffffffffffffffffffffffffffffffffffffffff168873ffffffffffffffffffffffffffffffffffffffff1614614541575f5f5f8481526020019081526020015f205f8a73ffffffffffffffffffffffffffffffffffffffff1673ffffffffffffffffffffffffffffffffffffffff1681526020019081526020015f20549050818110156144ed57888183856040517f03dee4c50000000000000000000000000000000000000000000000000000000081526004016144e49493929190615fff565b60405180910390fd5b8181035f5f8581526020019081526020015f205f8b73ffffffffffffffffffffffffffffffffffffffff1673ffffffffffffffffffffffffffffffffffffffff1681526020019081526020015f2081905550505b5f73ffffffffffffffffffffffffffffffffffffffff168773ffffffffffffffffffffffffffffffffffffffff16146145d657805f5f8481526020019081526020015f205f8973ffffffffffffffffffffffffffffffffffffffff1673ffffffffffffffffffffffffffffffffffffffff1681526020019081526020015f205f8282546145ce9190615c60565b925050819055505b50508060010190506143eb565b50600183510361469e575f6146015f8561321590919063ffffffff16565b90505f6146175f8561321590919063ffffffff16565b90508573ffffffffffffffffffffffffffffffffffffffff168773ffffffffffffffffffffffffffffffffffffffff168473ffffffffffffffffffffffffffffffffffffffff167fc3d58168c5ae7397731d063d5bbf3d657854427343f4c083240f7aacaa2d0f62858560405161468f929190615cba565b60405180910390a4505061471d565b8373ffffffffffffffffffffffffffffffffffffffff168573ffffffffffffffffffffffffffffffffffffffff168273ffffffffffffffffffffffffffffffffffffffff167f4a39dc06d4c0dbc64b70af90fd698a233a518aa5d07e595d983b8c0526c8f7fb8686604051614714929190616042565b60405180910390a45b5050505050565b6040518061014001604052805f81526020016060815260200160608152602001606081526020015f8152602001606081526020015f8152602001606081526020015f73ffffffffffffffffffffffffffffffffffffffff1681526020015f151581525090565b5f604051905090565b5f5ffd5b5f5ffd5b5f73ffffffffffffffffffffffffffffffffffffffff82169050919050565b5f6147c48261479b565b9050919050565b6147d4816147ba565b81146147de575f5ffd5b50565b5f813590506147ef816147cb565b92915050565b5f6020828403121561480a57614809614793565b5b5f614817848285016147e1565b91505092915050565b5f819050919050565b61483281614820565b82525050565b5f60208201905061484b5f830184614829565b92915050565b61485a81614820565b8114614864575f5ffd5b50565b5f8135905061487581614851565b92915050565b5f5f6040838503121561489157614890614793565b5b5f61489e858286016147e1565b92505060206148af85828601614867565b9150509250929050565b5f7fffffffff0000000000000000000000000000000000000000000000000000000082169050919050565b6148ed816148b9565b81146148f7575f5ffd5b50565b5f81359050614908816148e4565b92915050565b5f6020828403121561492357614922614793565b5b5f614930848285016148fa565b91505092915050565b5f8115159050919050565b61494d81614939565b82525050565b5f6020820190506149665f830184614944565b92915050565b5f6020828403121561498157614980614793565b5b5f61498e84828501614867565b91505092915050565b5f81519050919050565b5f82825260208201905092915050565b8281835e5f83830152505050565b5f601f19601f8301169050919050565b5f6149d982614997565b6149e381856149a1565b93506149f38185602086016149b1565b6149fc816149bf565b840191505092915050565b5f6020820190508181035f830152614a1f81846149cf565b905092915050565b5f5ffd5b5f5ffd5b7f4e487b71000000000000000000000000000000000000000000000000000000005f52604160045260245ffd5b614a65826149bf565b810181811067ffffffffffffffff82111715614a8457614a83614a2f565b5b80604052505050565b5f614a9661478a565b9050614aa28282614a5c565b919050565b5f67ffffffffffffffff821115614ac157614ac0614a2f565b5b614aca826149bf565b9050602081019050919050565b828183375f83830152505050565b5f614af7614af284614aa7565b614a8d565b905082815260208101848484011115614b1357614b12614a2b565b5b614b1e848285614ad7565b509392505050565b5f82601f830112614b3a57614b39614a27565b5b8135614b4a848260208601614ae5565b91505092915050565b5f5f60408385031215614b6957614b68614793565b5b5f614b7685828601614867565b925050602083013567ffffffffffffffff811115614b9757614b96614797565b5b614ba385828601614b26565b9150509250929050565b5f5f60408385031215614bc357614bc2614793565b5b5f614bd085828601614867565b9250506020614be185828601614867565b9150509250929050565b5f81519050919050565b5f82825260208201905092915050565b5f819050602082019050919050565b614c1d81614820565b82525050565b5f82825260208201905092915050565b5f614c3d82614997565b614c478185614c23565b9350614c578185602086016149b1565b614c60816149bf565b840191505092915050565b5f819050919050565b614c7d81614c6b565b82525050565b614c8c816147ba565b82525050565b614c9b81614939565b82525050565b5f61014083015f830151614cb75f860182614c14565b5060208301518482036020860152614ccf8282614c33565b91505060408301518482036040860152614ce98282614c33565b91505060608301518482036060860152614d038282614c33565b9150506080830151614d186080860182614c14565b5060a083015184820360a0860152614d308282614c33565b91505060c0830151614d4560c0860182614c74565b5060e083015184820360e0860152614d5d8282614c33565b915050610100830151614d74610100860182614c83565b50610120830151614d89610120860182614c92565b508091505092915050565b5f614d9f8383614ca1565b905092915050565b5f602082019050919050565b5f614dbd82614beb565b614dc78185614bf5565b935083602082028501614dd985614c05565b805f5b85811015614e145784840389528151614df58582614d94565b9450614e0083614da7565b925060208a01995050600181019050614ddc565b50829750879550505050505092915050565b5f81519050919050565b5f82825260208201905092915050565b5f819050602082019050919050565b5f614e5a8383614c92565b60208301905092915050565b5f602082019050919050565b5f614e7c82614e26565b614e868185614e30565b9350614e9183614e40565b805f5b83811015614ec1578151614ea88882614e4f565b9750614eb383614e66565b925050600181019050614e94565b5085935050505092915050565b5f6040820190508181035f830152614ee68185614db3565b90508181036020830152614efa8184614e72565b90509392505050565b614f0c81614c6b565b82525050565b5f602082019050614f255f830184614f03565b92915050565b614f3481614c6b565b8114614f3e575f5ffd5b50565b5f81359050614f4f81614f2b565b92915050565b5f60208284031215614f6a57614f69614793565b5b5f614f7784828501614f41565b91505092915050565b5f67ffffffffffffffff821115614f9a57614f99614a2f565b5b602082029050602081019050919050565b5f5ffd5b5f614fc1614fbc84614f80565b614a8d565b90508083825260208201905060208402830185811115614fe457614fe3614fab565b5b835b8181101561500d5780614ff98882614867565b845260208401935050602081019050614fe6565b5050509392505050565b5f82601f83011261502b5761502a614a27565b5b813561503b848260208601614faf565b91505092915050565b5f67ffffffffffffffff82111561505e5761505d614a2f565b5b615067826149bf565b9050602081019050919050565b5f61508661508184615044565b614a8d565b9050828152602081018484840111156150a2576150a1614a2b565b5b6150ad848285614ad7565b509392505050565b5f82601f8301126150c9576150c8614a27565b5b81356150d9848260208601615074565b91505092915050565b5f5f5f5f5f60a086880312156150fb576150fa614793565b5b5f615108888289016147e1565b9550506020615119888289016147e1565b945050604086013567ffffffffffffffff81111561513a57615139614797565b5b61514688828901615017565b935050606086013567ffffffffffffffff81111561516757615166614797565b5b61517388828901615017565b925050608086013567ffffffffffffffff81111561519457615193614797565b5b6151a0888289016150b5565b9150509295509295909350565b5f5f604083850312156151c3576151c2614793565b5b5f6151d085828601614f41565b92505060206151e1858286016147e1565b9150509250929050565b5f5f5f6060848603121561520257615201614793565b5b5f61520f868287016147e1565b935050602061522086828701614867565b925050604061523186828701614867565b9150509250925092565b5f81519050919050565b5f82825260208201905092915050565b5f819050602082019050919050565b5f61526f8383614c14565b60208301905092915050565b5f602082019050919050565b5f6152918261523b565b61529b8185615245565b93506152a683615255565b805f5b838110156152d65781516152bd8882615264565b97506152c88361527b565b9250506001810190506152a9565b5085935050505092915050565b5f6040820190508181035f8301526152fb8185614db3565b9050818103602083015261530f8184615287565b90509392505050565b5f67ffffffffffffffff82111561533257615331614a2f565b5b602082029050602081019050919050565b5f61535561535084615318565b614a8d565b9050808382526020820190506020840283018581111561537857615377614fab565b5b835b818110156153a1578061538d88826147e1565b84526020840193505060208101905061537a565b5050509392505050565b5f82601f8301126153bf576153be614a27565b5b81356153cf848260208601615343565b91505092915050565b5f5f604083850312156153ee576153ed614793565b5b5f83013567ffffffffffffffff81111561540b5761540a614797565b5b615417858286016153ab565b925050602083013567ffffffffffffffff81111561543857615437614797565b5b61544485828601615017565b9150509250929050565b5f6020820190508181035f8301526154668184615287565b905092915050565b5f5f5f6060848603121561548557615484614793565b5b5f61549286828701614867565b935050602084013567ffffffffffffffff8111156154b3576154b2614797565b5b6154bf86828701614b26565b92505060406154d086828701614f41565b9150509250925092565b5f602082840312156154ef576154ee614793565b5b5f82013567ffffffffffffffff81111561550c5761550b614797565b5b61551884828501614b26565b91505092915050565b61552a816147ba565b82525050565b5f610140820190506155445f83018d614829565b8181036020830152615556818c6149cf565b9050818103604083015261556a818b6149cf565b9050818103606083015261557e818a6149cf565b905061558d6080830189614829565b81810360a083015261559f81886149cf565b90506155ae60c0830187614f03565b81810360e08301526155c081866149cf565b90506155d0610100830185615521565b6155de610120830184614944565b9b9a5050505050505050505050565b6155f681614939565b8114615600575f5ffd5b50565b5f81359050615611816155ed565b92915050565b5f5f6040838503121561562d5761562c614793565b5b5f61563a858286016147e1565b925050602061564b85828601615603565b9150509250929050565b5f5f5f5f5f5f5f5f610100898b03121561567257615671614793565b5b5f61567f8b828c016147e1565b985050602089013567ffffffffffffffff8111156156a05761569f614797565b5b6156ac8b828c01614b26565b975050604089013567ffffffffffffffff8111156156cd576156cc614797565b5b6156d98b828c01614b26565b965050606089013567ffffffffffffffff8111156156fa576156f9614797565b5b6157068b828c01614b26565b955050608089013567ffffffffffffffff81111561572757615726614797565b5b6157338b828c01614b26565b94505060a089013567ffffffffffffffff81111561575457615753614797565b5b6157608b828c01614b26565b93505060c06157718b828c01614f41565b92505060e06157828b828c01614867565b9150509295985092959890939650565b5f6060820190506157a55f830186615521565b6157b26020830185614829565b81810360408301526157c481846149cf565b9050949350505050565b5f5f604083850312156157e4576157e3614793565b5b5f6157f1858286016147e1565b9250506020615802858286016147e1565b9150509250929050565b5f5f5f5f5f60a0868803121561582557615824614793565b5b5f615832888289016147e1565b9550506020615843888289016147e1565b945050604061585488828901614867565b935050606061586588828901614867565b925050608086013567ffffffffffffffff81111561588657615885614797565b5b615892888289016150b5565b9150509295509295909350565b7f546f6b656e20646f6573206e6f742065786973740000000000000000000000005f82015250565b5f6158d36014836149a1565b91506158de8261589f565b602082019050919050565b5f6020820190508181035f830152615900816158c7565b9050919050565b7f4e487b71000000000000000000000000000000000000000000000000000000005f52602260045260245ffd5b5f600282049050600182168061594b57607f821691505b60208210810361595e5761595d615907565b5b50919050565b7f4e487b71000000000000000000000000000000000000000000000000000000005f52601160045260245ffd5b5f61599b82614820565b91506159a683614820565b92508282039050818111156159be576159bd615964565b5b92915050565b7f4e487b71000000000000000000000000000000000000000000000000000000005f52603260045260245ffd5b5f819050815f5260205f209050919050565b5f6020601f8301049050919050565b5f82821b905092915050565b5f60088302615a4d7fffffffffffffffffffffffffffffffffffffffffffffffffffffffffffffffff82615a12565b615a578683615a12565b95508019841693508086168417925050509392505050565b5f819050919050565b5f615a92615a8d615a8884614820565b615a6f565b614820565b9050919050565b5f819050919050565b615aab83615a78565b615abf615ab782615a99565b848454615a1e565b825550505050565b5f5f905090565b615ad6615ac7565b615ae1818484615aa2565b505050565b5b81811015615b0457615af95f82615ace565b600181019050615ae7565b5050565b601f821115615b4957615b1a816159f1565b615b2384615a03565b81016020851015615b32578190505b615b46615b3e85615a03565b830182615ae6565b50505b505050565b5f82821c905092915050565b5f615b695f1984600802615b4e565b1980831691505092915050565b5f615b818383615b5a565b9150826002028217905092915050565b615b9a82614997565b67ffffffffffffffff811115615bb357615bb2614a2f565b5b615bbd8254615934565b615bc8828285615b08565b5f60209050601f831160018114615bf9575f8415615be7578287015190505b615bf18582615b76565b865550615c58565b601f198416615c07866159f1565b5f5b82811015615c2e57848901518255600182019150602085019450602081019050615c09565b86831015615c4b5784890151615c47601f891682615b5a565b8355505b6001600288020188555050505b505050505050565b5f615c6a82614820565b9150615c7583614820565b9250828201905080821115615c8d57615c8c615964565b5b92915050565b5f604082019050615ca65f830185615521565b615cb36020830184615521565b9392505050565b5f604082019050615ccd5f830185614829565b615cda6020830184614829565b9392505050565b5f81905092915050565b5f615cf582614997565b615cff8185615ce1565b9350615d0f8185602086016149b1565b80840191505092915050565b5f615d268284615ceb565b915081905092915050565b5f6040820190508181035f830152615d4981856149cf565b90508181036020830152615d5d81846149cf565b90509392505050565b5f615d7082614820565b91507fffffffffffffffffffffffffffffffffffffffffffffffffffffffffffffffff8203615da257615da1615964565b5b600182019050919050565b5f604082019050615dc05f830185614f03565b8181036020830152615dd281846149cf565b90509392505050565b5f602082019050615dee5f830184615521565b92915050565b5f604082019050615e075f830185615521565b615e146020830184614f03565b9392505050565b7f7472616e736665727265640000000000000000000000000000000000000000005f82015250565b5f615e4f600b836149a1565b9150615e5a82615e1b565b602082019050919050565b5f6020820190508181035f830152615e7c81615e43565b9050919050565b5f81519050919050565b5f82825260208201905092915050565b5f615ea782615e83565b615eb18185615e8d565b9350615ec18185602086016149b1565b615eca816149bf565b840191505092915050565b5f60a082019050615ee85f830188615521565b615ef56020830187615521565b615f026040830186614829565b615f0f6060830185614829565b8181036080830152615f218184615e9d565b90509695505050505050565b5f81519050615f3b816148e4565b92915050565b5f60208284031215615f5657615f55614793565b5b5f615f6384828501615f2d565b91505092915050565b5f60a082019050615f7f5f830188615521565b615f8c6020830187615521565b8181036040830152615f9e8186615287565b90508181036060830152615fb28185615287565b90508181036080830152615fc68184615e9d565b90509695505050505050565b7f4e487b71000000000000000000000000000000000000000000000000000000005f52603160045260245ffd5b5f6080820190506160125f830187615521565b61601f6020830186614829565b61602c6040830185614829565b6160396060830184614829565b95945050505050565b5f6040820190508181035f83015261605a8185615287565b9050818103602083015261606e8184615287565b9050939250505056fea264697066735822122021e79a48a3ff816fedeac1db011448729b30c5258f13b8281ce6a3ea8348868f64736f6c634300081e0033","linkReferences":{}},"methodIdentifiers":{"CUSTOMS_ROLE()":"dc04d247","DEFAULT_ADMIN_ROLE()":"a217fddf","DISTRIBUTOR_ROLE()":"f0bd87cc","MANUFACTURER_ROLE()":"965288b0","RETAILER_ROLE()":"2115e7bf","balanceOf(address,uint256)":"00fdd58e","balanceOfBatch(address[],uint256[])":"4e1273f4","destroyProduct(uint256,string)":"12aa1581","exists(uint256)":"4f558e79","getAllOwnedProducts(address)":"c8d256c6","getOwnedProductsBatch(address,uint256,uint256)":"44886cae","getOwnedProductsCount(address)":"003fd5e7","getProductsBatch(uint256,uint256)":"1c85d6aa","getRoleAdmin(bytes32)":"248a9ca3","grantCustomsRole(address)":"0ea5ef3d","grantDistributorRole(address)":"8bba2a0a","grantManufacturerRole(address)":"55c4281e","grantRetailerRole(address)":"f9f806e1","grantRole(bytes32,address)":"2f2ff15d","hasRole(bytes32,address)":"91d14854","isApprovedForAll(address,address)":"e985e9c5","metadataRegistry(uint256)":"e41ca8e8","nextTokenId()":"75794a3c","ownedProductIndex(address,uint256)":"3c7eab23","ownedProducts(address,uint256)":"d661743c","ownershipHistory(uint256,uint256)":"c9cf2adc","pause()":"8456cb59","paused()":"5c975abb","products(uint256)":"7acc0b20","registerProduct(address,string,string,string,string,string,bytes32,uint256)":"a2e8b6f9","renounceRole(bytes32,address)":"36568abe","revokeRole(bytes32,address)":"d547741f","safeBatchTransferFrom(address,address,uint256[],uint256[],bytes)":"2eb2c2d6","safeTransferFrom(address,address,uint256,uint256,bytes)":"f242432a","setApprovalForAll(address,bool)":"a22cb465","supportsInterface(bytes4)":"01ffc9a7","totalSupply()":"18160ddd","totalSupply(uint256)":"bd85b039","unpause()":"3f4ba83a","updateMetadataUrl(uint256,string,bytes32)":"5d235536","uri(uint256)":"0e89341c","urlToTokenId(string)":"6b37f634"},"id":39}